:03000000020EAB42
:0C0EAB00787FE4F6D8FD758139020A1A40
:100E15004C43442054657374005665723D00312E71
:100E2500340048756D3D002E0054656D3D00210070
:100E8500758901758C97758AF4D28C308DFDC28C6D
:030E9500C28D22E9
:100E9800758901758CFF758ADBD28C308DFDC28C0B
:030EA800C28D22D6
:100D1400C2A6D2A77F017E00120D35C2A70F120D05
:100D240035E9C454F0FFE590540F4FF590D2A77FF6
:010D340001BD
:100D3500E4FDFCC3ED9FEC9E5015E4FBFA0BBB00F4
:0F0D4500010AEB64704A70F50DBD00010C80E4EB
:010D5400227C
:100E5300A907E954F0FFE590540F4FF590C2A5128E
:090E63000D14C2A77F05020D3534
:100E6C00A907E954F0FFE590540F4FF590D2A51265
:090E7C000D14C2A77F05020D351B
:060DC5008B338A348935EE
:100DCB00E4F536F537AB33AA34A93585378285364A
:100DDB0083120800FF600D120E6C0537E53770E5C6
:040DEB00053680E168
:010DEF0022E1
:0A0D55007B007A007908E4FD7F01BD
:100D5F008F2E8D2F8B308A318932E52E7008E52F3B
:100D6F00540F4480800BE52EB4010AE52F540F4435
:0E0D7F00C0FF120E53AB30AA31A932020DC5CF
:100DF0007F147E00120D357F02120E537F28120ED3
:100E0000537F0C120E537F06120E537F01120E53A6
:050E10007F80020E537B
:080EB700C2A0120E85D2A02298
:100E3500E4FF30A0050FEF70F922E4FF20A0050FB5
:0D0E4500EF70F922E4FF30A0040FEF70F908
:010E5200227D
:100D8D00E4FFFEFDE4F58A20A0060FEF70F9FF22C7
:100D9D00D28CE4FF30A0060FEF70F9FF22C28CE574
:100DAD008AC39432EE400725E04401FE800325E01E
:070DBD00FE0DBD08CFAF06DB
:010DC400220C
:060BBB007B007A00791CAA
:0A0BC1008B2E8A2F89308C318D3283
:100BCB00E4F533F534E532453170160534E534AED2
:100BDB00337002053314F5828E83743012082D8026
:100BEB0046D3E5329400E531648094804039AE31D0
:100BFB00AF327C007D0A12084FED2430FFAB2EAADA
:100C0B002FA9300534E534AC337002053314F5826B
:100C1B008C83EF12082DAE31AF327C007D0A1208A7
:100C2B004F8E318F3280BAAB2EAA2FA930853482EA
:100C3B00853383E412082D853335853436E4F53757
:100C4B00F538AE35AF367C007D0212084FC3E53860
:100C5B009FEE6480F8E5376480985054AB2EAA2F32
:100C6B00A930853882853783120800F539C3E536FC
:100C7B009538CFE5359537CF24FFCF34FF8F82F5ED
:100C8B008312080085388285378312082DC3E53619
:100C9B009538CFE5359537CF24FFCF34FF8F82F5CD
:100CAB0083E53912082D0538E53870020537809237
:010CBB002216
:100A1A00120DF07BFF7A0E7915E4FDFF120D5F7857
:100A2A00087C007D007BFF7A0E791E120951753110
:100A3A00FF75320E7533237B007A007908120CBCDD
:100A4A00120D557FD07E07120D357E007F147D0072
:100A5A007B007A00790812096E758901E4F58CF534
:100A6A008A120EB7120E35120D8D7524008F2512BB
:100A7A000D8D7526008F27120D8D7528008F29126E
:100A8A000D8D752A008F2B120D8D752C008F2DADB3
:100A9A0025AC24120BBB7B007A007920AD27AC264B
:100AAA00120BC178087C007D007BFF7A0E79271231
:100ABA00095175310075320075331C7B007A007953
:100ACA0008120CBC7531FF75320E75332C7B007A17
:100ADA00007908120CBC7531007532007533207B21
:100AEA00007A007908120CBC7B007A007908E4FDD0
:100AFA00FF120D5FAD29AC28120BBB7B007A00797F
:100B0A0020AD2BAC2A120BC178087C007D007BFF3C
:100B1A007A0E792E12095175310075320075331C1F
:100B2A007B007A007908120CBC7531FF75320E759C
:100B3A00332C7B007A007908120CBC7531007532AF
:100B4A00007533207B007A007908120CBC120D550F
:100B5A007B007A007908AD2DAC2C120BC1E5252556
:100B6A0027FFE5243526FEE5292FFFE5283EFEE589
:100B7A002B2FFFE52A3EFEEF652D7003EE652C60F4
:100B8A00127531FF75320E7533337B007A0079089E
:100B9A00120CBC7B007A0079087D0C7F01120D5F74
:100BAA00D2A07F987E3A120D357F01120E53020AA7
:010BBA0054E6
:10080000BB010CE58229F582E5833AF583E02250AD
:1008100006E92582F8E622BBFE06E92582F8E222F7
:0D082000E58229F582E5833AF583E4932211
:10082D00F8BB010DE58229F582E5833AF583E8F001
:10083D00225006E92582C8F622BBFE05E92582C8AD
:02084D00F22295
:10084F00C2D5EC30E709B2D5E4C39DFDE49CFCEEC4
:10085F0030E715B2D5E4C39FFFE49EFE1209C5C36E
:10086F00E49DFDE49CFC80031209C530D507C3E469
:06087F009FFFE49EFE2233
:100CBC008B2E8A2F89308B348A358936AB2E0530B2
:100CCC00E530AA2F7002052F14F912099A70ED74F1
:100CDC00FF2530F53074FF352FF52FAB310533E59B
:100CEC0033AA327002053214F912099AFFAB2E05A1
:100CFC0030E530AA2F7002052F14F9EF1209B370EA
:080D0C00DAAB34AA35A9362246
:10088500E709F60870FA8046E709F20870FA803E33
:1008950088828C83E709F0A370FA807EE309F60865
:1008A50070FA8076E309F20870FA806E88828C838C
:1008B500E309F0A370FA806289828A83E0A3F608CF
:1008C50070FA805689828A83E0A3F20870FA804A1A
:1008D50080D280FA80C680D4806580F28031801015
:1008E50080A680EA809A80A880DA80E280CA80317A
:1008F50089828A83ECFAE493A3C8C582C8CCC583F0
:10090500CCF0A3C8C582C8CCC583CC70E9800D895D
:10091500828A83E493A3F60870F9ECFAA9F0EDFB5B
:100925002289828A83ECFAE0A3C8C582C8CCC58334
:10093500CCF0A3C8C582C8CCC583CC70EA80DD895C
:10094500828A83E493A3F20870F980CE88F0ED24BF
:1009550002B4040050C4F582EB2402B4040050BA7A
:0909650023234582239008D57379
:10096E00EF4E6012EF60010EEDBB010B89828A83A0
:10097E00F0A3DFFCDEFA2289F05007F709DFFCA9AD
:0C098E00F022BBFEFCF309DFFCA9F02204
:10099A00BB010689828A83E0225002E722BBFE025B
:0909AA00E32289828A83E493228E
:1009B300BB010689828A83F0225002F722BBFE0123
:0209C300F3221D
:1009C500BC000BBE0029EF8DF084FFADF022E4CC16
:1009D500F875F008EF2FFFEE33FEEC33FCEE9DECDF
:1009E500984005FCEE9DFE0FD5F0E9E4CEFD22ED25
:1009F500F8F5F0EE8420D21CFEADF075F008EF2F6F
:100A0500FFED33FD4007985006D5F0F222C398FD5F
:050A15000FD5F0EA22FC
:00000001FF
